{"contracts/Voting.sol":{"Voting":{"abi":[{"inputs":[{"internalType":"address","name":"tokenAddress","type":"address"}],"stateMutability":"nonpayable","type":"constructor"},{"anonymous":false,"inputs":[{"indexed":false,"internalType":"uint256","name":"id","type":"uint256"}],"name":"ProposalCreated","type":"event"},{"inputs":[{"internalType":"string","name":"title","type":"string"},{"internalType":"uint256","name":"endBlock","type":"uint256"}],"name":"createProposal","outputs":[],"stateMutability":"nonpayable","type":"function"},{"inputs":[{"internalType":"uint256","name":"proposalId","type":"uint256"}],"name":"passed","outputs":[{"internalType":"bool","name":"","type":"bool"}],"stateMutability":"view","type":"function"},{"inputs":[],"name":"proposalCounter","outputs":[{"internalType":"uint256","name":"","type":"uint256"}],"stateMutability":"view","type":"function"},{"inputs":[{"internalType":"uint256","name":"","type":"uint256"}],"name":"proposals","outputs":[{"internalType":"string","name":"title","type":"string"},{"internalType":"uint256","name":"endBlock","type":"uint256"},{"internalType":"uint256","name":"yeas","type":"uint256"},{"internalType":"uint256","name":"noes","type":"uint256"}],"stateMutability":"view","type":"function"},{"inputs":[{"internalType":"uint256","name":"proposalId","type":"uint256"}],"name":"voteNo","outputs":[],"stateMutability":"nonpayable","type":"function"},{"inputs":[{"internalType":"uint256","name":"proposalId","type":"uint256"}],"name":"voteYes","outputs":[],"stateMutability":"nonpayable","type":"function"},{"inputs":[],"name":"votingToken","outputs":[{"internalType":"contract ERC20","name":"","type":"address"}],"stateMutability":"view","type":"function"}],"evm":{"bytecode":{"linkReferences":{},"object":"608060405260006002553480156200001657600080fd5b506040516200112b3803806200112b83398181016040528101906200003c9190620000ed565b806000806101000a81548173ffffffffffffffffffffffffffffffffffffffff021916908373ffffffffffffffffffffffffffffffffffffffff160217905550506200011f565b600080fd5b600073ffffffffffffffffffffffffffffffffffffffff82169050919050565b6000620000b58262000088565b9050919050565b620000c781620000a8565b8114620000d357600080fd5b50565b600081519050620000e781620000bc565b92915050565b60006020828403121562000106576200010562000083565b5b60006200011684828501620000d6565b91505092915050565b610ffc806200012f6000396000f3fe608060405234801561001057600080fd5b506004361061007d5760003560e01c80631a6f7be51161005b5780631a6f7be51461010357806335facf781461011f5780636a1cf7211461013b578063b0340123146101575761007d565b8063013cf08b146100825780630a0155e5146100b55780630c0512e9146100e5575b600080fd5b61009c60048036038101906100979190610685565b610175565b6040516100ac9493929190610751565b60405180910390f35b6100cf60048036038101906100ca9190610685565b61022d565b6040516100dc91906107b8565b60405180910390f35b6100ed61029f565b6040516100fa91906107d3565b60405180910390f35b61011d60048036038101906101189190610685565b6102a5565b005b61013960048036038101906101349190610923565b6103b7565b005b61015560048036038101906101509190610685565b610505565b005b61015f610617565b60405161016c91906109fe565b60405180910390f35b600160205280600052604060002060009150905080600001805461019890610a48565b80601f01602080910402602001604051908101604052809291908181526020018280546101c490610a48565b80156102115780601f106101e657610100808354040283529160200191610211565b820191906000526020600020905b8154815290600101906020018083116101f457829003601f168201915b5050505050908060010154908060020154908060030154905084565b600080600160008481526020019081526020016000209050438160010154111561028c576040517f08c379a000000000000000000000000000000000000000000000000000000000815260040161028390610ac5565b60405180910390fd5b8060030154816002015411915050919050565b60025481565b600060016000838152602001908152602001600020905043816001015410610302576040517f08c379a00000000000000000000000000000000000000000000000000000000081526004016102f990610b31565b60405180910390fd5b60008054906101000a900473ffffffffffffffffffffffffffffffffffffffff1673ffffffffffffffffffffffffffffffffffffffff166370a08231336040518263ffffffff1660e01b815260040161035b9190610b72565b602060405180830381865afa158015610378573d6000803e3d6000fd5b505050506040513d601f19601f8201168201806040525081019061039c9190610ba2565b81600301546103ab9190610bfe565b81600301819055505050565b60008251116103fb576040517f08c379a00000000000000000000000000000000000000000000000000000000081526004016103f290610c7e565b60405180910390fd5b43811161043d576040517f08c379a000000000000000000000000000000000000000000000000000000000815260040161043490610cea565b60405180910390fd5b60006002549050604051806080016040528084815260200183815260200160008152602001600081525060016000838152602001908152602001600020600082015181600001908161048f9190610eac565b50602082015181600101556040820151816002015560608201518160030155905050600260008154809291906104c490610f7e565b91905055507fc2c021f5d73c63c481d336fbbafec58f694fc45095f00b02d2deb8cca59afe07816040516104f891906107d3565b60405180910390a1505050565b600060016000838152602001908152602001600020905043816001015411610562576040517f08c379a000000000000000000000000000000000000000000000000000000000815260040161055990610b31565b60405180910390fd5b60008054906101000a900473ffffffffffffffffffffffffffffffffffffffff1673ffffffffffffffffffffffffffffffffffffffff166370a08231336040518263ffffffff1660e01b81526004016105bb9190610b72565b602060405180830381865afa1580156105d8573d6000803e3d6000fd5b505050506040513d601f19601f820116820180604052508101906105fc9190610ba2565b816002015461060b9190610bfe565b81600201819055505050565b60008054906101000a900473ffffffffffffffffffffffffffffffffffffffff1681565b6000604051905090565b600080fd5b600080fd5b6000819050919050565b6106628161064f565b811461066d57600080fd5b50565b60008135905061067f81610659565b92915050565b60006020828403121561069b5761069a610645565b5b60006106a984828501610670565b91505092915050565b600081519050919050565b600082825260208201905092915050565b60005b838110156106ec5780820151818401526020810190506106d1565b60008484015250505050565b6000601f19601f8301169050919050565b6000610714826106b2565b61071e81856106bd565b935061072e8185602086016106ce565b610737816106f8565b840191505092915050565b61074b8161064f565b82525050565b6000608082019050818103600083015261076b8187610709565b905061077a6020830186610742565b6107876040830185610742565b6107946060830184610742565b95945050505050565b60008115159050919050565b6107b28161079d565b82525050565b60006020820190506107cd60008301846107a9565b92915050565b60006020820190506107e86000830184610742565b92915050565b600080fd5b600080fd5b7f4e487b7100000000000000000000000000000000000000000000000000000000600052604160045260246000fd5b610830826106f8565b810181811067ffffffffffffffff8211171561084f5761084e6107f8565b5b80604052505050565b600061086261063b565b905061086e8282610827565b919050565b600067ffffffffffffffff82111561088e5761088d6107f8565b5b610897826106f8565b9050602081019050919050565b82818337600083830152505050565b60006108c66108c184610873565b610858565b9050828152602081018484840111156108e2576108e16107f3565b5b6108ed8482856108a4565b509392505050565b600082601f83011261090a576109096107ee565b5b813561091a8482602086016108b3565b91505092915050565b6000806040838503121561093a57610939610645565b5b600083013567ffffffffffffffff8111156109585761095761064a565b5b610964858286016108f5565b925050602061097585828601610670565b9150509250929050565b600073ffffffffffffffffffffffffffffffffffffffff82169050919050565b6000819050919050565b60006109c46109bf6109ba8461097f565b61099f565b61097f565b9050919050565b60006109d6826109a9565b9050919050565b60006109e8826109cb565b9050919050565b6109f8816109dd565b82525050565b6000602082019050610a1360008301846109ef565b92915050565b7f4e487b7100000000000000000000000000000000000000000000000000000000600052602260045260246000fd5b60006002820490506001821680610a6057607f821691505b602082108103610a7357610a72610a19565b5b50919050565b7f70726f706f73616c206e6f7420656e6465640000000000000000000000000000600082015250565b6000610aaf6012836106bd565b9150610aba82610a79565b602082019050919050565b60006020820190508181036000830152610ade81610aa2565b9050919050565b7f70726f706f73616c20616c726561647920656e64656400000000000000000000600082015250565b6000610b1b6016836106bd565b9150610b2682610ae5565b602082019050919050565b60006020820190508181036000830152610b4a81610b0e565b9050919050565b6000610b5c8261097f565b9050919050565b610b6c81610b51565b82525050565b6000602082019050610b876000830184610b63565b92915050565b600081519050610b9c81610659565b92915050565b600060208284031215610bb857610bb7610645565b5b6000610bc684828501610b8d565b91505092915050565b7f4e487b7100000000000000000000000000000000000000000000000000000000600052601160045260246000fd5b6000610c098261064f565b9150610c148361064f565b9250828201905080821115610c2c57610c2b610bcf565b5b92915050565b7f7469746c6520697320656d707479000000000000000000000000000000000000600082015250565b6000610c68600e836106bd565b9150610c7382610c32565b602082019050919050565b60006020820190508181036000830152610c9781610c5b565b9050919050565b7f656e64426c6f636b20697320696e207468652070617374000000000000000000600082015250565b6000610cd46017836106bd565b9150610cdf82610c9e565b602082019050919050565b60006020820190508181036000830152610d0381610cc7565b9050919050565b60008190508160005260206000209050919050565b60006020601f8301049050919050565b600082821b905092915050565b600060088302610d6c7fffffffffffffffffffffffffffffffffffffffffffffffffffffffffffffffff82610d2f565b610d768683610d2f565b95508019841693508086168417925050509392505050565b6000610da9610da4610d9f8461064f565b61099f565b61064f565b9050919050565b6000819050919050565b610dc383610d8e565b610dd7610dcf82610db0565b848454610d3c565b825550505050565b600090565b610dec610ddf565b610df7818484610dba565b505050565b5b81811015610e1b57610e10600082610de4565b600181019050610dfd565b5050565b601f821115610e6057610e3181610d0a565b610e3a84610d1f565b81016020851015610e49578190505b610e5d610e5585610d1f565b830182610dfc565b50505b505050565b600082821c905092915050565b6000610e8360001984600802610e65565b1980831691505092915050565b6000610e9c8383610e72565b9150826002028217905092915050565b610eb5826106b2565b67ffffffffffffffff811115610ece57610ecd6107f8565b5b610ed88254610a48565b610ee3828285610e1f565b600060209050601f831160018114610f165760008415610f04578287015190505b610f0e8582610e90565b865550610f76565b601f198416610f2486610d0a565b60005b82811015610f4c57848901518255600182019150602085019450602081019050610f27565b86831015610f695784890151610f65601f891682610e72565b8355505b6001600288020188555050505b505050505050565b6000610f898261064f565b91507fffffffffffffffffffffffffffffffffffffffffffffffffffffffffffffffff8203610fbb57610fba610bcf565b5b60018201905091905056fea2646970667358221220e17f352b6918b459543bfecdf47c63c9660c6c8ef52788df07eff8a46f1c561b64736f6c63430008180033","opcodes":"PUSH1 0x80 PUSH1 0x40 MSTORE PUSH1 0x0 PUSH1 0x2 SSTORE CALLVALUE DUP1 ISZERO PUSH3 0x16 JUMPI PUSH1 0x0 DUP1 REVERT JUMPDEST POP PUSH1 0x40 MLOAD PUSH3 0x112B CODESIZE SUB DUP1 PUSH3 0x112B DUP4 CODECOPY DUP2 DUP2 ADD PUSH1 0x40 MSTORE DUP2 ADD SWAP1 PUSH3 0x3C SWAP2 SWAP1 PUSH3 0xED JUMP JUMPDEST DUP1 PUSH1 0x0 DUP1 PUSH2 0x100 EXP DUP2 SLOAD DUP2 PUSH20 0xFFFFFFFFFFFFFFFFFFFFFFFFFFFFFFFFFFFFFFFF MUL NOT AND SWAP1 DUP4 PUSH20 0xFFFFFFFFFFFFFFFFFFFFFFFFFFFFFFFFFFFFFFFF AND MUL OR SWAP1 SSTORE POP POP PUSH3 0x11F JUMP JUMPDEST PUSH1 0x0 DUP1 REVERT JUMPDEST PUSH1 0x0 PUSH20 0xFFFFFFFFFFFFFFFFFFFFFFFFFFFFFFFFFFFFFFFF DUP3 AND SWAP1 POP SWAP2 SWAP1 POP JUMP JUMPDEST PUSH1 0x0 PUSH3 0xB5 DUP3 PUSH3 0x88 JUMP JUMPDEST SWAP1 POP SWAP2 SWAP1 POP JUMP JUMPDEST PUSH3 0xC7 DUP2 PUSH3 0xA8 JUMP JUMPDEST DUP2 EQ PUSH3 0xD3 JUMPI PUSH1 0x0 DUP1 REVERT JUMPDEST POP JUMP JUMPDEST PUSH1 0x0 DUP2 MLOAD SWAP1 POP PUSH3 0xE7 DUP2 PUSH3 0xBC JUMP JUMPDEST SWAP3 SWAP2 POP POP JUMP JUMPDEST PUSH1 0x0 PUSH1 0x20 DUP3 DUP5 SUB SLT ISZERO PUSH3 0x106 JUMPI PUSH3 0x105 PUSH3 0x83 JUMP JUMPDEST JUMPDEST PUSH1 0x0 PUSH3 0x116 DUP5 DUP3 DUP6 ADD PUSH3 0xD6 JUMP JUMPDEST SWAP2 POP POP SWAP3 SWAP2 POP POP JUMP JUMPDEST PUSH2 0xFFC DUP1 PUSH3 0x12F PUSH1 0x0 CODECOPY PUSH1 0x0 RETURN INVALID PUSH1 0x80 PUSH1 0x40 MSTORE CALLVALUE DUP1 ISZERO PUSH2 0x10 JUMPI PUSH1 0x0 DUP1 REVERT JUMPDEST POP PUSH1 0x4 CALLDATASIZE LT PUSH2 0x7D JUMPI PUSH1 0x0 CALLDATALOAD PUSH1 0xE0 SHR DUP1 PUSH4 0x1A6F7BE5 GT PUSH2 0x5B JUMPI DUP1 PUSH4 0x1A6F7BE5 EQ PUSH2 0x103 JUMPI DUP1 PUSH4 0x35FACF78 EQ PUSH2 0x11F JUMPI DUP1 PUSH4 0x6A1CF721 EQ PUSH2 0x13B JUMPI DUP1 PUSH4 0xB0340123 EQ PUSH2 0x157 JUMPI PUSH2 0x7D JUMP JUMPDEST DUP1 PUSH4 0x13CF08B EQ PUSH2 0x82 JUMPI DUP1 PUSH4 0xA0155E5 EQ PUSH2 0xB5 JUMPI DUP1 PUSH4 0xC0512E9 EQ PUSH2 0xE5 JUMPI JUMPDEST PUSH1 0x0 DUP1 REVERT JUMPDEST PUSH2 0x9C PUSH1 0x4 DUP1 CALLDATASIZE SUB DUP2 ADD SWAP1 PUSH2 0x97 SWAP2 SWAP1 PUSH2 0x685 JUMP JUMPDEST PUSH2 0x175 JUMP JUMPDEST PUSH1 0x40 MLOAD PUSH2 0xAC SWAP5 SWAP4 SWAP3 SWAP2 SWAP1 PUSH2 0x751 JUMP JUMPDEST PUSH1 0x40 MLOAD DUP1 SWAP2 SUB SWAP1 RETURN JUMPDEST PUSH2 0xCF PUSH1 0x4 DUP1 CALLDATASIZE SUB DUP2 ADD SWAP1 PUSH2 0xCA SWAP2 SWAP1 PUSH2 0x685 JUMP JUMPDEST PUSH2 0x22D JUMP JUMPDEST PUSH1 0x40 MLOAD PUSH2 0xDC SWAP2 SWAP1 PUSH2 0x7B8 JUMP JUMPDEST PUSH1 0x40 MLOAD DUP1 SWAP2 SUB SWAP1 RETURN JUMPDEST PUSH2 0xED PUSH2 0x29F JUMP JUMPDEST PUSH1 0x40 MLOAD PUSH2 0xFA SWAP2 SWAP1 PUSH2 0x7D3 JUMP JUMPDEST PUSH1 0x40 MLOAD DUP1 SWAP2 SUB SWAP1 RETURN JUMPDEST PUSH2 0x11D PUSH1 0x4 DUP1 CALLDATASIZE SUB DUP2 ADD SWAP1 PUSH2 0x118 SWAP2 SWAP1 PUSH2 0x685 JUMP JUMPDEST PUSH2 0x2A5 JUMP JUMPDEST STOP JUMPDEST PUSH2 0x139 PUSH1 0x4 DUP1 CALLDATASIZE SUB DUP2 ADD SWAP1 PUSH2 0x134 SWAP2 SWAP1 PUSH2 0x923 JUMP JUMPDEST PUSH2 0x3B7 JUMP JUMPDEST STOP JUMPDEST PUSH2 0x155 PUSH1 0x4 DUP1 CALLDATASIZE SUB DUP2 ADD SWAP1 PUSH2 0x150 SWAP2 SWAP1 PUSH2 0x685 JUMP JUMPDEST PUSH2 0x505 JUMP JUMPDEST STOP JUMPDEST PUSH2 0x15F PUSH2 0x617 JUMP JUMPDEST PUSH1 0x40 MLOAD PUSH2 0x16C SWAP2 SWAP1 PUSH2 0x9FE JUMP JUMPDEST PUSH1 0x40 MLOAD DUP1 SWAP2 SUB SWAP1 RETURN JUMPDEST PUSH1 0x1 PUSH1 0x20 MSTORE DUP1 PUSH1 0x0 MSTORE PUSH1 0x40 PUSH1 0x0 KECCAK256 PUSH1 0x0 SWAP2 POP SWAP1 POP DUP1 PUSH1 0x0 ADD DUP1 SLOAD PUSH2 0x198 SWAP1 PUSH2 0xA48 JUMP JUMPDEST DUP1 PUSH1 0x1F ADD PUSH1 0x20 DUP1 SWAP2 DIV MUL PUSH1 0x20 ADD PUSH1 0x40 MLOAD SWAP1 DUP2 ADD PUSH1 0x40 MSTORE DUP1 SWAP3 SWAP2 SWAP1 DUP2 DUP2 MSTORE PUSH1 0x20 ADD DUP3 DUP1 SLOAD PUSH2 0x1C4 SWAP1 PUSH2 0xA48 JUMP JUMPDEST DUP1 ISZERO PUSH2 0x211 JUMPI DUP1 PUSH1 0x1F LT PUSH2 0x1E6 JUMPI PUSH2 0x100 DUP1 DUP4 SLOAD DIV MUL DUP4 MSTORE SWAP2 PUSH1 0x20 ADD SWAP2 PUSH2 0x211 JUMP JUMPDEST DUP3 ADD SWAP2 SWAP1 PUSH1 0x0 MSTORE PUSH1 0x20 PUSH1 0x0 KECCAK256 SWAP1 JUMPDEST DUP2 SLOAD DUP2 MSTORE SWAP1 PUSH1 0x1 ADD SWAP1 PUSH1 0x20 ADD DUP1 DUP4 GT PUSH2 0x1F4 JUMPI DUP3 SWAP1 SUB PUSH1 0x1F AND DUP3 ADD SWAP2 JUMPDEST POP POP POP POP POP SWAP1 DUP1 PUSH1 0x1 ADD SLOAD SWAP1 DUP1 PUSH1 0x2 ADD SLOAD SWAP1 DUP1 PUSH1 0x3 ADD SLOAD SWAP1 POP DUP5 JUMP JUMPDEST PUSH1 0x0 DUP1 PUSH1 0x1 PUSH1 0x0 DUP5 DUP2 MSTORE PUSH1 0x20 ADD SWAP1 DUP2 MSTORE PUSH1 0x20 ADD PUSH1 0x0 KECCAK256 SWAP1 POP NUMBER DUP2 PUSH1 0x1 ADD SLOAD GT ISZERO PUSH2 0x28C JUMPI PUSH1 0x40 MLOAD PUSH32 0x8C379A000000000000000000000000000000000000000000000000000000000 DUP2 MSTORE PUSH1 0x4 ADD PUSH2 0x283 SWAP1 PUSH2 0xAC5 JUMP JUMPDEST PUSH1 0x40 MLOAD DUP1 SWAP2 SUB SWAP1 REVERT JUMPDEST DUP1 PUSH1 0x3 ADD SLOAD DUP2 PUSH1 0x2 ADD SLOAD GT SWAP2 POP POP SWAP2 SWAP1 POP JUMP JUMPDEST PUSH1 0x2 SLOAD DUP2 JUMP JUMPDEST PUSH1 0x0 PUSH1 0x1 PUSH1 0x0 DUP4 DUP2 MSTORE PUSH1 0x20 ADD SWAP1 DUP2 MSTORE PUSH1 0x20 ADD PUSH1 0x0 KECCAK256 SWAP1 POP NUMBER DUP2 PUSH1 0x1 ADD SLOAD LT PUSH2 0x302 JUMPI PUSH1 0x40 MLOAD PUSH32 0x8C379A000000000000000000000000000000000000000000000000000000000 DUP2 MSTORE PUSH1 0x4 ADD PUSH2 0x2F9 SWAP1 PUSH2 0xB31 JUMP JUMPDEST PUSH1 0x40 MLOAD DUP1 SWAP2 SUB SWAP1 REVERT JUMPDEST PUSH1 0x0 DUP1 SLOAD SWAP1 PUSH2 0x100 EXP SWAP1 DIV PUSH20 0xFFFFFFFFFFFFFFFFFFFFFFFFFFFFFFFFFFFFFFFF AND PUSH20 0xFFFFFFFFFFFFFFFFFFFFFFFFFFFFFFFFFFFFFFFF AND PUSH4 0x70A08231 CALLER PUSH1 0x40 MLOAD DUP3 PUSH4 0xFFFFFFFF AND PUSH1 0xE0 SHL DUP2 MSTORE PUSH1 0x4 ADD PUSH2 0x35B SWAP2 SWAP1 PUSH2 0xB72 JUMP JUMPDEST PUSH1 0x20 PUSH1 0x40 MLOAD DUP1 DUP4 SUB DUP2 DUP7 GAS STATICCALL ISZERO DUP1 ISZERO PUSH2 0x378 JUMPI RETURNDATASIZE PUSH1 0x0 DUP1 RETURNDATACOPY RETURNDATASIZE PUSH1 0x0 REVERT JUMPDEST POP POP POP POP PUSH1 0x40 MLOAD RETURNDATASIZE PUSH1 0x1F NOT PUSH1 0x1F DUP3 ADD AND DUP3 ADD DUP1 PUSH1 0x40 MSTORE POP DUP2 ADD SWAP1 PUSH2 0x39C SWAP2 SWAP1 PUSH2 0xBA2 JUMP JUMPDEST DUP2 PUSH1 0x3 ADD SLOAD PUSH2 0x3AB SWAP2 SWAP1 PUSH2 0xBFE JUMP JUMPDEST DUP2 PUSH1 0x3 ADD DUP2 SWAP1 SSTORE POP POP POP JUMP JUMPDEST PUSH1 0x0 DUP3 MLOAD GT PUSH2 0x3FB JUMPI PUSH1 0x40 MLOAD PUSH32 0x8C379A000000000000000000000000000000000000000000000000000000000 DUP2 MSTORE PUSH1 0x4 ADD PUSH2 0x3F2 SWAP1 PUSH2 0xC7E JUMP JUMPDEST PUSH1 0x40 MLOAD DUP1 SWAP2 SUB SWAP1 REVERT JUMPDEST NUMBER DUP2 GT PUSH2 0x43D JUMPI PUSH1 0x40 MLOAD PUSH32 0x8C379A000000000000000000000000000000000000000000000000000000000 DUP2 MSTORE PUSH1 0x4 ADD PUSH2 0x434 SWAP1 PUSH2 0xCEA JUMP JUMPDEST PUSH1 0x40 MLOAD DUP1 SWAP2 SUB SWAP1 REVERT JUMPDEST PUSH1 0x0 PUSH1 0x2 SLOAD SWAP1 POP PUSH1 0x40 MLOAD DUP1 PUSH1 0x80 ADD PUSH1 0x40 MSTORE DUP1 DUP5 DUP2 MSTORE PUSH1 0x20 ADD DUP4 DUP2 MSTORE PUSH1 0x20 ADD PUSH1 0x0 DUP2 MSTORE PUSH1 0x20 ADD PUSH1 0x0 DUP2 MSTORE POP PUSH1 0x1 PUSH1 0x0 DUP4 DUP2 MSTORE PUSH1 0x20 ADD SWAP1 DUP2 MSTORE PUSH1 0x20 ADD PUSH1 0x0 KECCAK256 PUSH1 0x0 DUP3 ADD MLOAD DUP2 PUSH1 0x0 ADD SWAP1 DUP2 PUSH2 0x48F SWAP2 SWAP1 PUSH2 0xEAC JUMP JUMPDEST POP PUSH1 0x20 DUP3 ADD MLOAD DUP2 PUSH1 0x1 ADD SSTORE PUSH1 0x40 DUP3 ADD MLOAD DUP2 PUSH1 0x2 ADD SSTORE PUSH1 0x60 DUP3 ADD MLOAD DUP2 PUSH1 0x3 ADD SSTORE SWAP1 POP POP PUSH1 0x2 PUSH1 0x0 DUP2 SLOAD DUP1 SWAP3 SWAP2 SWAP1 PUSH2 0x4C4 SWAP1 PUSH2 0xF7E JUMP JUMPDEST SWAP2 SWAP1 POP SSTORE POP PUSH32 0xC2C021F5D73C63C481D336FBBAFEC58F694FC45095F00B02D2DEB8CCA59AFE07 DUP2 PUSH1 0x40 MLOAD PUSH2 0x4F8 SWAP2 SWAP1 PUSH2 0x7D3 JUMP JUMPDEST PUSH1 0x40 MLOAD DUP1 SWAP2 SUB SWAP1 LOG1 POP POP POP JUMP JUMPDEST PUSH1 0x0 PUSH1 0x1 PUSH1 0x0 DUP4 DUP2 MSTORE PUSH1 0x20 ADD SWAP1 DUP2 MSTORE PUSH1 0x20 ADD PUSH1 0x0 KECCAK256 SWAP1 POP NUMBER DUP2 PUSH1 0x1 ADD SLOAD GT PUSH2 0x562 JUMPI PUSH1 0x40 MLOAD PUSH32 0x8C379A000000000000000000000000000000000000000000000000000000000 DUP2 MSTORE PUSH1 0x4 ADD PUSH2 0x559 SWAP1 PUSH2 0xB31 JUMP JUMPDEST PUSH1 0x40 MLOAD DUP1 SWAP2 SUB SWAP1 REVERT JUMPDEST PUSH1 0x0 DUP1 SLOAD SWAP1 PUSH2 0x100 EXP SWAP1 DIV PUSH20 0xFFFFFFFFFFFFFFFFFFFFFFFFFFFFFFFFFFFFFFFF AND PUSH20 0xFFFFFFFFFFFFFFFFFFFFFFFFFFFFFFFFFFFFFFFF AND PUSH4 0x70A08231 CALLER PUSH1 0x40 MLOAD DUP3 PUSH4 0xFFFFFFFF AND PUSH1 0xE0 SHL DUP2 MSTORE PUSH1 0x4 ADD PUSH2 0x5BB SWAP2 SWAP1 PUSH2 0xB72 JUMP JUMPDEST PUSH1 0x20 PUSH1 0x40 MLOAD DUP1 DUP4 SUB DUP2 DUP7 GAS STATICCALL ISZERO DUP1 ISZERO PUSH2 0x5D8 JUMPI RETURNDATASIZE PUSH1 0x0 DUP1 RETURNDATACOPY RETURNDATASIZE PUSH1 0x0 REVERT JUMPDEST POP POP POP POP PUSH1 0x40 MLOAD RETURNDATASIZE PUSH1 0x1F NOT PUSH1 0x1F DUP3 ADD AND DUP3 ADD DUP1 PUSH1 0x40 MSTORE POP DUP2 ADD SWAP1 PUSH2 0x5FC SWAP2 SWAP1 PUSH2 0xBA2 JUMP JUMPDEST DUP2 PUSH1 0x2 ADD SLOAD PUSH2 0x60B SWAP2 SWAP1 PUSH2 0xBFE JUMP JUMPDEST DUP2 PUSH1 0x2 ADD DUP2 SWAP1 SSTORE POP POP POP JUMP JUMPDEST PUSH1 0x0 DUP1 SLOAD SWAP1 PUSH2 0x100 EXP SWAP1 DIV PUSH20 0xFFFFFFFFFFFFFFFFFFFFFFFFFFFFFFFFFFFFFFFF AND DUP2 JUMP JUMPDEST PUSH1 0x0 PUSH1 0x40 MLOAD SWAP1 POP SWAP1 JUMP JUMPDEST PUSH1 0x0 DUP1 REVERT JUMPDEST PUSH1 0x0 DUP1 REVERT JUMPDEST PUSH1 0x0 DUP2 SWAP1 POP SWAP2 SWAP1 POP JUMP JUMPDEST PUSH2 0x662 DUP2 PUSH2 0x64F JUMP JUMPDEST DUP2 EQ PUSH2 0x66D JUMPI PUSH1 0x0 DUP1 REVERT JUMPDEST POP JUMP JUMPDEST PUSH1 0x0 DUP2 CALLDATALOAD SWAP1 POP PUSH2 0x67F DUP2 PUSH2 0x659 JUMP JUMPDEST SWAP3 SWAP2 POP POP JUMP JUMPDEST PUSH1 0x0 PUSH1 0x20 DUP3 DUP5 SUB SLT ISZERO PUSH2 0x69B JUMPI PUSH2 0x69A PUSH2 0x645 JUMP JUMPDEST JUMPDEST PUSH1 0x0 PUSH2 0x6A9 DUP5 DUP3 DUP6 ADD PUSH2 0x670 JUMP JUMPDEST SWAP2 POP POP SWAP3 SWAP2 POP POP JUMP JUMPDEST PUSH1 0x0 DUP2 MLOAD SWAP1 POP SWAP2 SWAP1 POP JUMP JUMPDEST PUSH1 0x0 DUP3 DUP3 MSTORE PUSH1 0x20 DUP3 ADD SWAP1 POP SWAP3 SWAP2 POP POP JUMP JUMPDEST PUSH1 0x0 JUMPDEST DUP4 DUP2 LT ISZERO PUSH2 0x6EC JUMPI DUP1 DUP3 ADD MLOAD DUP2 DUP5 ADD MSTORE PUSH1 0x20 DUP2 ADD SWAP1 POP PUSH2 0x6D1 JUMP JUMPDEST PUSH1 0x0 DUP5 DUP5 ADD MSTORE POP POP POP POP JUMP JUMPDEST PUSH1 0x0 PUSH1 0x1F NOT PUSH1 0x1F DUP4 ADD AND SWAP1 POP SWAP2 SWAP1 POP JUMP JUMPDEST PUSH1 0x0 PUSH2 0x714 DUP3 PUSH2 0x6B2 JUMP JUMPDEST PUSH2 0x71E DUP2 DUP6 PUSH2 0x6BD JUMP JUMPDEST SWAP4 POP PUSH2 0x72E DUP2 DUP6 PUSH1 0x20 DUP7 ADD PUSH2 0x6CE JUMP JUMPDEST PUSH2 0x737 DUP2 PUSH2 0x6F8 JUMP JUMPDEST DUP5 ADD SWAP2 POP POP SWAP3 SWAP2 POP POP JUMP JUMPDEST PUSH2 0x74B DUP2 PUSH2 0x64F JUMP JUMPDEST DUP3 MSTORE POP POP JUMP JUMPDEST PUSH1 0x0 PUSH1 0x80 DUP3 ADD SWAP1 POP DUP2 DUP2 SUB PUSH1 0x0 DUP4 ADD MSTORE PUSH2 0x76B DUP2 DUP8 PUSH2 0x709 JUMP JUMPDEST SWAP1 POP PUSH2 0x77A PUSH1 0x20 DUP4 ADD DUP7 PUSH2 0x742 JUMP JUMPDEST PUSH2 0x787 PUSH1 0x40 DUP4 ADD DUP6 PUSH2 0x742 JUMP JUMPDEST PUSH2 0x794 PUSH1 0x60 DUP4 ADD DUP5 PUSH2 0x742 JUMP JUMPDEST SWAP6 SWAP5 POP POP POP POP POP JUMP JUMPDEST PUSH1 0x0 DUP2 ISZERO ISZERO SWAP1 POP SWAP2 SWAP1 POP JUMP JUMPDEST PUSH2 0x7B2 DUP2 PUSH2 0x79D JUMP JUMPDEST DUP3 MSTORE POP POP JUMP JUMPDEST PUSH1 0x0 PUSH1 0x20 DUP3 ADD SWAP1 POP PUSH2 0x7CD PUSH1 0x0 DUP4 ADD DUP5 PUSH2 0x7A9 JUMP JUMPDEST SWAP3 SWAP2 POP POP JUMP JUMPDEST PUSH1 0x0 PUSH1 0x20 DUP3 ADD SWAP1 POP PUSH2 0x7E8 PUSH1 0x0 DUP4 ADD DUP5 PUSH2 0x742 JUMP JUMPDEST SWAP3 SWAP2 POP POP JUMP JUMPDEST PUSH1 0x0 DUP1 REVERT JUMPDEST PUSH1 0x0 DUP1 REVERT JUMPDEST PUSH32 0x4E487B7100000000000000000000000000000000000000000000000000000000 PUSH1 0x0 MSTORE PUSH1 0x41 PUSH1 0x4 MSTORE PUSH1 0x24 PUSH1 0x0 REVERT JUMPDEST PUSH2 0x830 DUP3 PUSH2 0x6F8 JUMP JUMPDEST DUP2 ADD DUP2 DUP2 LT PUSH8 0xFFFFFFFFFFFFFFFF DUP3 GT OR ISZERO PUSH2 0x84F JUMPI PUSH2 0x84E PUSH2 0x7F8 JUMP JUMPDEST JUMPDEST DUP1 PUSH1 0x40 MSTORE POP POP POP JUMP JUMPDEST PUSH1 0x0 PUSH2 0x862 PUSH2 0x63B JUMP JUMPDEST SWAP1 POP PUSH2 0x86E DUP3 DUP3 PUSH2 0x827 JUMP JUMPDEST SWAP2 SWAP1 POP JUMP JUMPDEST PUSH1 0x0 PUSH8 0xFFFFFFFFFFFFFFFF DUP3 GT ISZERO PUSH2 0x88E JUMPI PUSH2 0x88D PUSH2 0x7F8 JUMP JUMPDEST JUMPDEST PUSH2 0x897 DUP3 PUSH2 0x6F8 JUMP JUMPDEST SWAP1 POP PUSH1 0x20 DUP2 ADD SWAP1 POP SWAP2 SWAP1 POP JUMP JUMPDEST DUP3 DUP2 DUP4 CALLDATACOPY PUSH1 0x0 DUP4 DUP4 ADD MSTORE POP POP POP JUMP JUMPDEST PUSH1 0x0 PUSH2 0x8C6 PUSH2 0x8C1 DUP5 PUSH2 0x873 JUMP JUMPDEST PUSH2 0x858 JUMP JUMPDEST SWAP1 POP DUP3 DUP2 MSTORE PUSH1 0x20 DUP2 ADD DUP5 DUP5 DUP5 ADD GT ISZERO PUSH2 0x8E2 JUMPI PUSH2 0x8E1 PUSH2 0x7F3 JUMP JUMPDEST JUMPDEST PUSH2 0x8ED DUP5 DUP3 DUP6 PUSH2 0x8A4 JUMP JUMPDEST POP SWAP4 SWAP3 POP POP POP JUMP JUMPDEST PUSH1 0x0 DUP3 PUSH1 0x1F DUP4 ADD SLT PUSH2 0x90A JUMPI PUSH2 0x909 PUSH2 0x7EE JUMP JUMPDEST JUMPDEST DUP2 CALLDATALOAD PUSH2 0x91A DUP5 DUP3 PUSH1 0x20 DUP7 ADD PUSH2 0x8B3 JUMP JUMPDEST SWAP2 POP POP SWAP3 SWAP2 POP POP JUMP JUMPDEST PUSH1 0x0 DUP1 PUSH1 0x40 DUP4 DUP6 SUB SLT ISZERO PUSH2 0x93A JUMPI PUSH2 0x939 PUSH2 0x645 JUMP JUMPDEST JUMPDEST PUSH1 0x0 DUP4 ADD CALLDATALOAD PUSH8 0xFFFFFFFFFFFFFFFF DUP2 GT ISZERO PUSH2 0x958 JUMPI PUSH2 0x957 PUSH2 0x64A JUMP JUMPDEST JUMPDEST PUSH2 0x964 DUP6 DUP3 DUP7 ADD PUSH2 0x8F5 JUMP JUMPDEST SWAP3 POP POP PUSH1 0x20 PUSH2 0x975 DUP6 DUP3 DUP7 ADD PUSH2 0x670 JUMP JUMPDEST SWAP2 POP POP SWAP3 POP SWAP3 SWAP1 POP JUMP JUMPDEST PUSH1 0x0 PUSH20 0xFFFFFFFFFFFFFFFFFFFFFFFFFFFFFFFFFFFFFFFF DUP3 AND SWAP1 POP SWAP2 SWAP1 POP JUMP JUMPDEST PUSH1 0x0 DUP2 SWAP1 POP SWAP2 SWAP1 POP JUMP JUMPDEST PUSH1 0x0 PUSH2 0x9C4 PUSH2 0x9BF PUSH2 0x9BA DUP5 PUSH2 0x97F JUMP JUMPDEST PUSH2 0x99F JUMP JUMPDEST PUSH2 0x97F JUMP JUMPDEST SWAP1 POP SWAP2 SWAP1 POP JUMP JUMPDEST PUSH1 0x0 PUSH2 0x9D6 DUP3 PUSH2 0x9A9 JUMP JUMPDEST SWAP1 POP SWAP2 SWAP1 POP JUMP JUMPDEST PUSH1 0x0 PUSH2 0x9E8 DUP3 PUSH2 0x9CB JUMP JUMPDEST SWAP1 POP SWAP2 SWAP1 POP JUMP JUMPDEST PUSH2 0x9F8 DUP2 PUSH2 0x9DD JUMP JUMPDEST DUP3 MSTORE POP POP JUMP JUMPDEST PUSH1 0x0 PUSH1 0x20 DUP3 ADD SWAP1 POP PUSH2 0xA13 PUSH1 0x0 DUP4 ADD DUP5 PUSH2 0x9EF JUMP JUMPDEST SWAP3 SWAP2 POP POP JUMP JUMPDEST PUSH32 0x4E487B7100000000000000000000000000000000000000000000000000000000 PUSH1 0x0 MSTORE PUSH1 0x22 PUSH1 0x4 MSTORE PUSH1 0x24 PUSH1 0x0 REVERT JUMPDEST PUSH1 0x0 PUSH1 0x2 DUP3 DIV SWAP1 POP PUSH1 0x1 DUP3 AND DUP1 PUSH2 0xA60 JUMPI PUSH1 0x7F DUP3 AND SWAP2 POP JUMPDEST PUSH1 0x20 DUP3 LT DUP2 SUB PUSH2 0xA73 JUMPI PUSH2 0xA72 PUSH2 0xA19 JUMP JUMPDEST JUMPDEST POP SWAP2 SWAP1 POP JUMP JUMPDEST PUSH32 0x70726F706F73616C206E6F7420656E6465640000000000000000000000000000 PUSH1 0x0 DUP3 ADD MSTORE POP JUMP JUMPDEST PUSH1 0x0 PUSH2 0xAAF PUSH1 0x12 DUP4 PUSH2 0x6BD JUMP JUMPDEST SWAP2 POP PUSH2 0xABA DUP3 PUSH2 0xA79 JUMP JUMPDEST PUSH1 0x20 DUP3 ADD SWAP1 POP SWAP2 SWAP1 POP JUMP JUMPDEST PUSH1 0x0 PUSH1 0x20 DUP3 ADD SWAP1 POP DUP2 DUP2 SUB PUSH1 0x0 DUP4 ADD MSTORE PUSH2 0xADE DUP2 PUSH2 0xAA2 JUMP JUMPDEST SWAP1 POP SWAP2 SWAP1 POP JUMP JUMPDEST PUSH32 0x70726F706F73616C20616C726561647920656E64656400000000000000000000 PUSH1 0x0 DUP3 ADD MSTORE POP JUMP JUMPDEST PUSH1 0x0 PUSH2 0xB1B PUSH1 0x16 DUP4 PUSH2 0x6BD JUMP JUMPDEST SWAP2 POP PUSH2 0xB26 DUP3 PUSH2 0xAE5 JUMP JUMPDEST PUSH1 0x20 DUP3 ADD SWAP1 POP SWAP2 SWAP1 POP JUMP JUMPDEST PUSH1 0x0 PUSH1 0x20 DUP3 ADD SWAP1 POP DUP2 DUP2 SUB PUSH1 0x0 DUP4 ADD MSTORE PUSH2 0xB4A DUP2 PUSH2 0xB0E JUMP JUMPDEST SWAP1 POP SWAP2 SWAP1 POP JUMP JUMPDEST PUSH1 0x0 PUSH2 0xB5C DUP3 PUSH2 0x97F JUMP JUMPDEST SWAP1 POP SWAP2 SWAP1 POP JUMP JUMPDEST PUSH2 0xB6C DUP2 PUSH2 0xB51 JUMP JUMPDEST DUP3 MSTORE POP POP JUMP JUMPDEST PUSH1 0x0 PUSH1 0x20 DUP3 ADD SWAP1 POP PUSH2 0xB87 PUSH1 0x0 DUP4 ADD DUP5 PUSH2 0xB63 JUMP JUMPDEST SWAP3 SWAP2 POP POP JUMP JUMPDEST PUSH1 0x0 DUP2 MLOAD SWAP1 POP PUSH2 0xB9C DUP2 PUSH2 0x659 JUMP JUMPDEST SWAP3 SWAP2 POP POP JUMP JUMPDEST PUSH1 0x0 PUSH1 0x20 DUP3 DUP5 SUB SLT ISZERO PUSH2 0xBB8 JUMPI PUSH2 0xBB7 PUSH2 0x645 JUMP JUMPDEST JUMPDEST PUSH1 0x0 PUSH2 0xBC6 DUP5 DUP3 DUP6 ADD PUSH2 0xB8D JUMP JUMPDEST SWAP2 POP POP SWAP3 SWAP2 POP POP JUMP JUMPDEST PUSH32 0x4E487B7100000000000000000000000000000000000000000000000000000000 PUSH1 0x0 MSTORE PUSH1 0x11 PUSH1 0x4 MSTORE PUSH1 0x24 PUSH1 0x0 REVERT JUMPDEST PUSH1 0x0 PUSH2 0xC09 DUP3 PUSH2 0x64F JUMP JUMPDEST SWAP2 POP PUSH2 0xC14 DUP4 PUSH2 0x64F JUMP JUMPDEST SWAP3 POP DUP3 DUP3 ADD SWAP1 POP DUP1 DUP3 GT ISZERO PUSH2 0xC2C JUMPI PUSH2 0xC2B PUSH2 0xBCF JUMP JUMPDEST JUMPDEST SWAP3 SWAP2 POP POP JUMP JUMPDEST PUSH32 0x7469746C6520697320656D707479000000000000000000000000000000000000 PUSH1 0x0 DUP3 ADD MSTORE POP JUMP JUMPDEST PUSH1 0x0 PUSH2 0xC68 PUSH1 0xE DUP4 PUSH2 0x6BD JUMP JUMPDEST SWAP2 POP PUSH2 0xC73 DUP3 PUSH2 0xC32 JUMP JUMPDEST PUSH1 0x20 DUP3 ADD SWAP1 POP SWAP2 SWAP1 POP JUMP JUMPDEST PUSH1 0x0 PUSH1 0x20 DUP3 ADD SWAP1 POP DUP2 DUP2 SUB PUSH1 0x0 DUP4 ADD MSTORE PUSH2 0xC97 DUP2 PUSH2 0xC5B JUMP JUMPDEST SWAP1 POP SWAP2 SWAP1 POP JUMP JUMPDEST PUSH32 0x656E64426C6F636B20697320696E207468652070617374000000000000000000 PUSH1 0x0 DUP3 ADD MSTORE POP JUMP JUMPDEST PUSH1 0x0 PUSH2 0xCD4 PUSH1 0x17 DUP4 PUSH2 0x6BD JUMP JUMPDEST SWAP2 POP PUSH2 0xCDF DUP3 PUSH2 0xC9E JUMP JUMPDEST PUSH1 0x20 DUP3 ADD SWAP1 POP SWAP2 SWAP1 POP JUMP JUMPDEST PUSH1 0x0 PUSH1 0x20 DUP3 ADD SWAP1 POP DUP2 DUP2 SUB PUSH1 0x0 DUP4 ADD MSTORE PUSH2 0xD03 DUP2 PUSH2 0xCC7 JUMP JUMPDEST SWAP1 POP SWAP2 SWAP1 POP JUMP JUMPDEST PUSH1 0x0 DUP2 SWAP1 POP DUP2 PUSH1 0x0 MSTORE PUSH1 0x20 PUSH1 0x0 KECCAK256 SWAP1 POP SWAP2 SWAP1 POP JUMP JUMPDEST PUSH1 0x0 PUSH1 0x20 PUSH1 0x1F DUP4 ADD DIV SWAP1 POP SWAP2 SWAP1 POP JUMP JUMPDEST PUSH1 0x0 DUP3 DUP3 SHL SWAP1 POP SWAP3 SWAP2 POP POP JUMP JUMPDEST PUSH1 0x0 PUSH1 0x8 DUP4 MUL PUSH2 0xD6C PUSH32 0xFFFFFFFFFFFFFFFFFFFFFFFFFFFFFFFFFFFFFFFFFFFFFFFFFFFFFFFFFFFFFFFF DUP3 PUSH2 0xD2F JUMP JUMPDEST PUSH2 0xD76 DUP7 DUP4 PUSH2 0xD2F JUMP JUMPDEST SWAP6 POP DUP1 NOT DUP5 AND SWAP4 POP DUP1 DUP7 AND DUP5 OR SWAP3 POP POP POP SWAP4 SWAP3 POP POP POP JUMP JUMPDEST PUSH1 0x0 PUSH2 0xDA9 PUSH2 0xDA4 PUSH2 0xD9F DUP5 PUSH2 0x64F JUMP JUMPDEST PUSH2 0x99F JUMP JUMPDEST PUSH2 0x64F JUMP JUMPDEST SWAP1 POP SWAP2 SWAP1 POP JUMP JUMPDEST PUSH1 0x0 DUP2 SWAP1 POP SWAP2 SWAP1 POP JUMP JUMPDEST PUSH2 0xDC3 DUP4 PUSH2 0xD8E JUMP JUMPDEST PUSH2 0xDD7 PUSH2 0xDCF DUP3 PUSH2 0xDB0 JUMP JUMPDEST DUP5 DUP5 SLOAD PUSH2 0xD3C JUMP JUMPDEST DUP3 SSTORE POP POP POP POP JUMP JUMPDEST PUSH1 0x0 SWAP1 JUMP JUMPDEST PUSH2 0xDEC PUSH2 0xDDF JUMP JUMPDEST PUSH2 0xDF7 DUP2 DUP5 DUP5 PUSH2 0xDBA JUMP JUMPDEST POP POP POP JUMP JUMPDEST JUMPDEST DUP2 DUP2 LT ISZERO PUSH2 0xE1B JUMPI PUSH2 0xE10 PUSH1 0x0 DUP3 PUSH2 0xDE4 JUMP JUMPDEST PUSH1 0x1 DUP2 ADD SWAP1 POP PUSH2 0xDFD JUMP JUMPDEST POP POP JUMP JUMPDEST PUSH1 0x1F DUP3 GT ISZERO PUSH2 0xE60 JUMPI PUSH2 0xE31 DUP2 PUSH2 0xD0A JUMP JUMPDEST PUSH2 0xE3A DUP5 PUSH2 0xD1F JUMP JUMPDEST DUP2 ADD PUSH1 0x20 DUP6 LT ISZERO PUSH2 0xE49 JUMPI DUP2 SWAP1 POP JUMPDEST PUSH2 0xE5D PUSH2 0xE55 DUP6 PUSH2 0xD1F JUMP JUMPDEST DUP4 ADD DUP3 PUSH2 0xDFC JUMP JUMPDEST POP POP JUMPDEST POP POP POP JUMP JUMPDEST PUSH1 0x0 DUP3 DUP3 SHR SWAP1 POP SWAP3 SWAP2 POP POP JUMP JUMPDEST PUSH1 0x0 PUSH2 0xE83 PUSH1 0x0 NOT DUP5 PUSH1 0x8 MUL PUSH2 0xE65 JUMP JUMPDEST NOT DUP1 DUP4 AND SWAP2 POP POP SWAP3 SWAP2 POP POP JUMP JUMPDEST PUSH1 0x0 PUSH2 0xE9C DUP4 DUP4 PUSH2 0xE72 JUMP JUMPDEST SWAP2 POP DUP3 PUSH1 0x2 MUL DUP3 OR SWAP1 POP SWAP3 SWAP2 POP POP JUMP JUMPDEST PUSH2 0xEB5 DUP3 PUSH2 0x6B2 JUMP JUMPDEST PUSH8 0xFFFFFFFFFFFFFFFF DUP2 GT ISZERO PUSH2 0xECE JUMPI PUSH2 0xECD PUSH2 0x7F8 JUMP JUMPDEST JUMPDEST PUSH2 0xED8 DUP3 SLOAD PUSH2 0xA48 JUMP JUMPDEST PUSH2 0xEE3 DUP3 DUP3 DUP6 PUSH2 0xE1F JUMP JUMPDEST PUSH1 0x0 PUSH1 0x20 SWAP1 POP PUSH1 0x1F DUP4 GT PUSH1 0x1 DUP2 EQ PUSH2 0xF16 JUMPI PUSH1 0x0 DUP5 ISZERO PUSH2 0xF04 JUMPI DUP3 DUP8 ADD MLOAD SWAP1 POP JUMPDEST PUSH2 0xF0E DUP6 DUP3 PUSH2 0xE90 JUMP JUMPDEST DUP7 SSTORE POP PUSH2 0xF76 JUMP JUMPDEST PUSH1 0x1F NOT DUP5 AND PUSH2 0xF24 DUP7 PUSH2 0xD0A JUMP JUMPDEST PUSH1 0x0 JUMPDEST DUP3 DUP2 LT ISZERO PUSH2 0xF4C JUMPI DUP5 DUP10 ADD MLOAD DUP3 SSTORE PUSH1 0x1 DUP3 ADD SWAP2 POP PUSH1 0x20 DUP6 ADD SWAP5 POP PUSH1 0x20 DUP2 ADD SWAP1 POP PUSH2 0xF27 JUMP JUMPDEST DUP7 DUP4 LT ISZERO PUSH2 0xF69 JUMPI DUP5 DUP10 ADD MLOAD PUSH2 0xF65 PUSH1 0x1F DUP10 AND DUP3 PUSH2 0xE72 JUMP JUMPDEST DUP4 SSTORE POP JUMPDEST PUSH1 0x1 PUSH1 0x2 DUP9 MUL ADD DUP9 SSTORE POP POP POP JUMPDEST POP POP POP POP POP POP JUMP JUMPDEST PUSH1 0x0 PUSH2 0xF89 DUP3 PUSH2 0x64F JUMP JUMPDEST SWAP2 POP PUSH32 0xFFFFFFFFFFFFFFFFFFFFFFFFFFFFFFFFFFFFFFFFFFFFFFFFFFFFFFFFFFFFFFFF DUP3 SUB PUSH2 0xFBB JUMPI PUSH2 0xFBA PUSH2 0xBCF JUMP JUMPDEST JUMPDEST PUSH1 0x1 DUP3 ADD SWAP1 POP SWAP2 SWAP1 POP JUMP INVALID LOG2 PUSH5 0x6970667358 0x22 SLT KECCAK256 0xE1 PUSH32 0x352B6918B459543BFECDF47C63C9660C6C8EF52788DF07EFF8A46F1C561B6473 PUSH16 0x6C634300081800330000000000000000 "},"methodIdentifiers":{"createProposal(string,uint256)":"35facf78","passed(uint256)":"0a0155e5","proposalCounter()":"0c0512e9","proposals(uint256)":"013cf08b","voteNo(uint256)":"1a6f7be5","voteYes(uint256)":"6a1cf721","votingToken()":"b0340123"}}}}}