{
  "_format": "hh-sol-artifact-1",
  "contractName": "Voting",
  "sourceName": "contracts/Voting.sol",
  "abi": [
    {
      "inputs": [
        {
          "internalType": "address",
          "name": "tokenAddress",
          "type": "address"
        }
      ],
      "stateMutability": "nonpayable",
      "type": "constructor"
    },
    {
      "anonymous": false,
      "inputs": [
        {
          "indexed": false,
          "internalType": "uint256",
          "name": "id",
          "type": "uint256"
        }
      ],
      "name": "ProposalCreated",
      "type": "event"
    },
    {
      "inputs": [
        {
          "internalType": "string",
          "name": "title",
          "type": "string"
        },
        {
          "internalType": "uint256",
          "name": "endBlock",
          "type": "uint256"
        }
      ],
      "name": "createProposal",
      "outputs": [],
      "stateMutability": "nonpayable",
      "type": "function"
    },
    {
      "inputs": [
        {
          "internalType": "uint256",
          "name": "proposalId",
          "type": "uint256"
        }
      ],
      "name": "passed",
      "outputs": [
        {
          "internalType": "bool",
          "name": "",
          "type": "bool"
        }
      ],
      "stateMutability": "view",
      "type": "function"
    },
    {
      "inputs": [],
      "name": "proposalCounter",
      "outputs": [
        {
          "internalType": "uint256",
          "name": "",
          "type": "uint256"
        }
      ],
      "stateMutability": "view",
      "type": "function"
    },
    {
      "inputs": [
        {
          "internalType": "uint256",
          "name": "",
          "type": "uint256"
        }
      ],
      "name": "proposals",
      "outputs": [
        {
          "internalType": "string",
          "name": "title",
          "type": "string"
        },
        {
          "internalType": "uint256",
          "name": "endBlock",
          "type": "uint256"
        },
        {
          "internalType": "uint256",
          "name": "yeas",
          "type": "uint256"
        },
        {
          "internalType": "uint256",
          "name": "noes",
          "type": "uint256"
        }
      ],
      "stateMutability": "view",
      "type": "function"
    },
    {
      "inputs": [
        {
          "internalType": "uint256",
          "name": "proposalId",
          "type": "uint256"
        }
      ],
      "name": "voteNo",
      "outputs": [],
      "stateMutability": "nonpayable",
      "type": "function"
    },
    {
      "inputs": [
        {
          "internalType": "uint256",
          "name": "proposalId",
          "type": "uint256"
        }
      ],
      "name": "voteYes",
      "outputs": [],
      "stateMutability": "nonpayable",
      "type": "function"
    },
    {
      "inputs": [],
      "name": "votingToken",
      "outputs": [
        {
          "internalType": "contract ERC20",
          "name": "",
          "type": "address"
        }
      ],
      "stateMutability": "view",
      "type": "function"
    }
  ],
  "bytecode": "0x608060405260006002553480156200001657600080fd5b506040516200112b3803806200112b83398181016040528101906200003c9190620000ed565b806000806101000a81548173ffffffffffffffffffffffffffffffffffffffff021916908373ffffffffffffffffffffffffffffffffffffffff160217905550506200011f565b600080fd5b600073ffffffffffffffffffffffffffffffffffffffff82169050919050565b6000620000b58262000088565b9050919050565b620000c781620000a8565b8114620000d357600080fd5b50565b600081519050620000e781620000bc565b92915050565b60006020828403121562000106576200010562000083565b5b60006200011684828501620000d6565b91505092915050565b610ffc806200012f6000396000f3fe608060405234801561001057600080fd5b506004361061007d5760003560e01c80631a6f7be51161005b5780631a6f7be51461010357806335facf781461011f5780636a1cf7211461013b578063b0340123146101575761007d565b8063013cf08b146100825780630a0155e5146100b55780630c0512e9146100e5575b600080fd5b61009c60048036038101906100979190610685565b610175565b6040516100ac9493929190610751565b60405180910390f35b6100cf60048036038101906100ca9190610685565b61022d565b6040516100dc91906107b8565b60405180910390f35b6100ed61029f565b6040516100fa91906107d3565b60405180910390f35b61011d60048036038101906101189190610685565b6102a5565b005b61013960048036038101906101349190610923565b6103b7565b005b61015560048036038101906101509190610685565b610505565b005b61015f610617565b60405161016c91906109fe565b60405180910390f35b600160205280600052604060002060009150905080600001805461019890610a48565b80601f01602080910402602001604051908101604052809291908181526020018280546101c490610a48565b80156102115780601f106101e657610100808354040283529160200191610211565b820191906000526020600020905b8154815290600101906020018083116101f457829003601f168201915b5050505050908060010154908060020154908060030154905084565b600080600160008481526020019081526020016000209050438160010154111561028c576040517f08c379a000000000000000000000000000000000000000000000000000000000815260040161028390610ac5565b60405180910390fd5b8060030154816002015411915050919050565b60025481565b600060016000838152602001908152602001600020905043816001015410610302576040517f08c379a00000000000000000000000000000000000000000000000000000000081526004016102f990610b31565b60405180910390fd5b60008054906101000a900473ffffffffffffffffffffffffffffffffffffffff1673ffffffffffffffffffffffffffffffffffffffff166370a08231336040518263ffffffff1660e01b815260040161035b9190610b72565b602060405180830381865afa158015610378573d6000803e3d6000fd5b505050506040513d601f19601f8201168201806040525081019061039c9190610ba2565b81600301546103ab9190610bfe565b81600301819055505050565b60008251116103fb576040517f08c379a00000000000000000000000000000000000000000000000000000000081526004016103f290610c7e565b60405180910390fd5b43811161043d576040517f08c379a000000000000000000000000000000000000000000000000000000000815260040161043490610cea565b60405180910390fd5b60006002549050604051806080016040528084815260200183815260200160008152602001600081525060016000838152602001908152602001600020600082015181600001908161048f9190610eac565b50602082015181600101556040820151816002015560608201518160030155905050600260008154809291906104c490610f7e565b91905055507fc2c021f5d73c63c481d336fbbafec58f694fc45095f00b02d2deb8cca59afe07816040516104f891906107d3565b60405180910390a1505050565b600060016000838152602001908152602001600020905043816001015411610562576040517f08c379a000000000000000000000000000000000000000000000000000000000815260040161055990610b31565b60405180910390fd5b60008054906101000a900473ffffffffffffffffffffffffffffffffffffffff1673ffffffffffffffffffffffffffffffffffffffff166370a08231336040518263ffffffff1660e01b81526004016105bb9190610b72565b602060405180830381865afa1580156105d8573d6000803e3d6000fd5b505050506040513d601f19601f820116820180604052508101906105fc9190610ba2565b816002015461060b9190610bfe565b81600201819055505050565b60008054906101000a900473ffffffffffffffffffffffffffffffffffffffff1681565b6000604051905090565b600080fd5b600080fd5b6000819050919050565b6106628161064f565b811461066d57600080fd5b50565b60008135905061067f81610659565b92915050565b60006020828403121561069b5761069a610645565b5b60006106a984828501610670565b91505092915050565b600081519050919050565b600082825260208201905092915050565b60005b838110156106ec5780820151818401526020810190506106d1565b60008484015250505050565b6000601f19601f8301169050919050565b6000610714826106b2565b61071e81856106bd565b935061072e8185602086016106ce565b610737816106f8565b840191505092915050565b61074b8161064f565b82525050565b6000608082019050818103600083015261076b8187610709565b905061077a6020830186610742565b6107876040830185610742565b6107946060830184610742565b95945050505050565b60008115159050919050565b6107b28161079d565b82525050565b60006020820190506107cd60008301846107a9565b92915050565b60006020820190506107e86000830184610742565b92915050565b600080fd5b600080fd5b7f4e487b7100000000000000000000000000000000000000000000000000000000600052604160045260246000fd5b610830826106f8565b810181811067ffffffffffffffff8211171561084f5761084e6107f8565b5b80604052505050565b600061086261063b565b905061086e8282610827565b919050565b600067ffffffffffffffff82111561088e5761088d6107f8565b5b610897826106f8565b9050602081019050919050565b82818337600083830152505050565b60006108c66108c184610873565b610858565b9050828152602081018484840111156108e2576108e16107f3565b5b6108ed8482856108a4565b509392505050565b600082601f83011261090a576109096107ee565b5b813561091a8482602086016108b3565b91505092915050565b6000806040838503121561093a57610939610645565b5b600083013567ffffffffffffffff8111156109585761095761064a565b5b610964858286016108f5565b925050602061097585828601610670565b9150509250929050565b600073ffffffffffffffffffffffffffffffffffffffff82169050919050565b6000819050919050565b60006109c46109bf6109ba8461097f565b61099f565b61097f565b9050919050565b60006109d6826109a9565b9050919050565b60006109e8826109cb565b9050919050565b6109f8816109dd565b82525050565b6000602082019050610a1360008301846109ef565b92915050565b7f4e487b7100000000000000000000000000000000000000000000000000000000600052602260045260246000fd5b60006002820490506001821680610a6057607f821691505b602082108103610a7357610a72610a19565b5b50919050565b7f70726f706f73616c206e6f7420656e6465640000000000000000000000000000600082015250565b6000610aaf6012836106bd565b9150610aba82610a79565b602082019050919050565b60006020820190508181036000830152610ade81610aa2565b9050919050565b7f70726f706f73616c20616c726561647920656e64656400000000000000000000600082015250565b6000610b1b6016836106bd565b9150610b2682610ae5565b602082019050919050565b60006020820190508181036000830152610b4a81610b0e565b9050919050565b6000610b5c8261097f565b9050919050565b610b6c81610b51565b82525050565b6000602082019050610b876000830184610b63565b92915050565b600081519050610b9c81610659565b92915050565b600060208284031215610bb857610bb7610645565b5b6000610bc684828501610b8d565b91505092915050565b7f4e487b7100000000000000000000000000000000000000000000000000000000600052601160045260246000fd5b6000610c098261064f565b9150610c148361064f565b9250828201905080821115610c2c57610c2b610bcf565b5b92915050565b7f7469746c6520697320656d707479000000000000000000000000000000000000600082015250565b6000610c68600e836106bd565b9150610c7382610c32565b602082019050919050565b60006020820190508181036000830152610c9781610c5b565b9050919050565b7f656e64426c6f636b20697320696e207468652070617374000000000000000000600082015250565b6000610cd46017836106bd565b9150610cdf82610c9e565b602082019050919050565b60006020820190508181036000830152610d0381610cc7565b9050919050565b60008190508160005260206000209050919050565b60006020601f8301049050919050565b600082821b905092915050565b600060088302610d6c7fffffffffffffffffffffffffffffffffffffffffffffffffffffffffffffffff82610d2f565b610d768683610d2f565b95508019841693508086168417925050509392505050565b6000610da9610da4610d9f8461064f565b61099f565b61064f565b9050919050565b6000819050919050565b610dc383610d8e565b610dd7610dcf82610db0565b848454610d3c565b825550505050565b600090565b610dec610ddf565b610df7818484610dba565b505050565b5b81811015610e1b57610e10600082610de4565b600181019050610dfd565b5050565b601f821115610e6057610e3181610d0a565b610e3a84610d1f565b81016020851015610e49578190505b610e5d610e5585610d1f565b830182610dfc565b50505b505050565b600082821c905092915050565b6000610e8360001984600802610e65565b1980831691505092915050565b6000610e9c8383610e72565b9150826002028217905092915050565b610eb5826106b2565b67ffffffffffffffff811115610ece57610ecd6107f8565b5b610ed88254610a48565b610ee3828285610e1f565b600060209050601f831160018114610f165760008415610f04578287015190505b610f0e8582610e90565b865550610f76565b601f198416610f2486610d0a565b60005b82811015610f4c57848901518255600182019150602085019450602081019050610f27565b86831015610f695784890151610f65601f891682610e72565b8355505b6001600288020188555050505b505050505050565b6000610f898261064f565b91507fffffffffffffffffffffffffffffffffffffffffffffffffffffffffffffffff8203610fbb57610fba610bcf565b5b60018201905091905056fea2646970667358221220e17f352b6918b459543bfecdf47c63c9660c6c8ef52788df07eff8a46f1c561b64736f6c63430008180033",
  "linkReferences": {},
  "deployedLinkReferences": {}
}