{
  "_format": "hh-sol-artifact-1",
  "contractName": "StockExchange",
  "sourceName": "contracts/StockExchange.sol",
  "abi": [
    {
      "inputs": [],
      "stateMutability": "nonpayable",
      "type": "constructor"
    },
    {
      "anonymous": false,
      "inputs": [
        {
          "indexed": true,
          "internalType": "string",
          "name": "id",
          "type": "string"
        },
        {
          "indexed": false,
          "internalType": "address",
          "name": "owner",
          "type": "address"
        },
        {
          "indexed": false,
          "internalType": "uint256",
          "name": "price",
          "type": "uint256"
        },
        {
          "indexed": false,
          "internalType": "uint256",
          "name": "quantity",
          "type": "uint256"
        },
        {
          "indexed": false,
          "internalType": "uint256",
          "name": "maxPurchaseQuantity",
          "type": "uint256"
        }
      ],
      "name": "NewStock",
      "type": "event"
    },
    {
      "anonymous": false,
      "inputs": [
        {
          "indexed": true,
          "internalType": "string",
          "name": "id",
          "type": "string"
        },
        {
          "indexed": false,
          "internalType": "address",
          "name": "buyer",
          "type": "address"
        },
        {
          "indexed": false,
          "internalType": "uint256",
          "name": "quantity",
          "type": "uint256"
        },
        {
          "indexed": false,
          "internalType": "uint256",
          "name": "totalPrice",
          "type": "uint256"
        }
      ],
      "name": "StockSold",
      "type": "event"
    },
    {
      "inputs": [
        {
          "internalType": "string",
          "name": "_id",
          "type": "string"
        },
        {
          "internalType": "uint256",
          "name": "_quantity",
          "type": "uint256"
        }
      ],
      "name": "buyStock",
      "outputs": [],
      "stateMutability": "payable",
      "type": "function"
    },
    {
      "inputs": [
        {
          "internalType": "string",
          "name": "_id",
          "type": "string"
        },
        {
          "internalType": "uint256",
          "name": "_price",
          "type": "uint256"
        },
        {
          "internalType": "uint256",
          "name": "_quantity",
          "type": "uint256"
        },
        {
          "internalType": "uint256",
          "name": "_maxPurchaseQuantity",
          "type": "uint256"
        }
      ],
      "name": "createStock",
      "outputs": [],
      "stateMutability": "nonpayable",
      "type": "function"
    },
    {
      "inputs": [
        {
          "internalType": "string",
          "name": "_id",
          "type": "string"
        }
      ],
      "name": "getStockDetails",
      "outputs": [
        {
          "internalType": "uint256",
          "name": "price",
          "type": "uint256"
        },
        {
          "internalType": "uint256",
          "name": "quantity",
          "type": "uint256"
        },
        {
          "internalType": "uint256",
          "name": "maxPurchaseQuantity",
          "type": "uint256"
        }
      ],
      "stateMutability": "view",
      "type": "function"
    },
    {
      "inputs": [],
      "name": "getUserPortfolioValue",
      "outputs": [
        {
          "internalType": "uint256",
          "name": "",
          "type": "uint256"
        }
      ],
      "stateMutability": "view",
      "type": "function"
    },
    {
      "inputs": [
        {
          "internalType": "string",
          "name": "",
          "type": "string"
        }
      ],
      "name": "stockIndex",
      "outputs": [
        {
          "internalType": "uint256",
          "name": "",
          "type": "uint256"
        }
      ],
      "stateMutability": "view",
      "type": "function"
    },
    {
      "inputs": [
        {
          "internalType": "uint256",
          "name": "",
          "type": "uint256"
        }
      ],
      "name": "stocks",
      "outputs": [
        {
          "internalType": "address",
          "name": "owner",
          "type": "address"
        },
        {
          "internalType": "string",
          "name": "id",
          "type": "string"
        },
        {
          "internalType": "uint256",
          "name": "price",
          "type": "uint256"
        },
        {
          "internalType": "uint256",
          "name": "quantity",
          "type": "uint256"
        },
        {
          "internalType": "uint256",
          "name": "maxPurchaseQuantity",
          "type": "uint256"
        }
      ],
      "stateMutability": "view",
      "type": "function"
    },
    {
      "inputs": [
        {
          "internalType": "address",
          "name": "",
          "type": "address"
        },
        {
          "internalType": "string",
          "name": "",
          "type": "string"
        }
      ],
      "name": "userStocks",
      "outputs": [
        {
          "internalType": "uint256",
          "name": "",
          "type": "uint256"
        }
      ],
      "stateMutability": "view",
      "type": "function"
    }
  ],
  "bytecode": "0x60806040523480156200001157600080fd5b506200005e6040518060400160405280600481526020017f4141504c00000000000000000000000000000000000000000000000000000000815250609660646014620000b160201b60201c565b620000ab6040518060400160405280600581526020017f474f4f474c0000000000000000000000000000000000000000000000000000008152506109c46032600a620000b160201b60201c565b62000a74565b60008311620000f7576040517f08c379a0000000000000000000000000000000000000000000000000000000008152600401620000ee90620003ff565b60405180910390fd5b600082116200013d576040517f08c379a0000000000000000000000000000000000000000000000000000000008152600401620001349062000471565b60405180910390fd5b6000811162000183576040517f08c379a00000000000000000000000000000000000000000000000000000000081526004016200017a90620004e3565b60405180910390fd5b60006001856040516200019791906200057e565b90815260200160405180910390205414620001e9576040517f08c379a0000000000000000000000000000000000000000000000000000000008152600401620001e090620005e7565b60405180910390fd5b600084511162000230576040517f08c379a0000000000000000000000000000000000000000000000000000000008152600401620002279062000659565b60405180910390fd5b60006040518060a001604052803373ffffffffffffffffffffffffffffffffffffffff16815260200186815260200185815260200184815260200183815250908060018154018082558091505060019003906000526020600020906005020160009091909190915060008201518160000160006101000a81548173ffffffffffffffffffffffffffffffffffffffff021916908373ffffffffffffffffffffffffffffffffffffffff1602179055506020820151816001019081620002f69190620008ea565b5060408201518160020155606082015181600301556080820151816004015550506000805490506001856040516200032f91906200057e565b908152602001604051809103902081905550836040516200035191906200057e565b60405180910390207fb75a65bce79356189bfa7962f2ad7097851f15ff966c148c02761f8f5c575bd93385858560405162000390949392919062000a27565b60405180910390a250505050565b600082825260208201905092915050565b7f496e76616c696420707269636500000000000000000000000000000000000000600082015250565b6000620003e7600d836200039e565b9150620003f482620003af565b602082019050919050565b600060208201905081810360008301526200041a81620003d8565b9050919050565b7f496e76616c6964207175616e7469747900000000000000000000000000000000600082015250565b6000620004596010836200039e565b9150620004668262000421565b602082019050919050565b600060208201905081810360008301526200048c816200044a565b9050919050565b7f496e76616c6964206d6178207075726368617365207175616e74697479000000600082015250565b6000620004cb601d836200039e565b9150620004d88262000493565b602082019050919050565b60006020820190508181036000830152620004fe81620004bc565b9050919050565b600081519050919050565b600081905092915050565b60005b838110156200053b5780820151818401526020810190506200051e565b60008484015250505050565b6000620005548262000505565b62000560818562000510565b9350620005728185602086016200051b565b80840191505092915050565b60006200058c828462000547565b915081905092915050565b7f53746f636b20616c726561647920657869737473000000000000000000000000600082015250565b6000620005cf6014836200039e565b9150620005dc8262000597565b602082019050919050565b600060208201905081810360008301526200060281620005c0565b9050919050565b7f496e76616c69642073746f636b20494400000000000000000000000000000000600082015250565b6000620006416010836200039e565b91506200064e8262000609565b602082019050919050565b60006020820190508181036000830152620006748162000632565b9050919050565b7f4e487b7100000000000000000000000000000000000000000000000000000000600052604160045260246000fd5b7f4e487b7100000000000000000000000000000000000000000000000000000000600052602260045260246000fd5b60006002820490506001821680620006f257607f821691505b602082108103620007085762000707620006aa565b5b50919050565b60008190508160005260206000209050919050565b60006020601f8301049050919050565b600082821b905092915050565b600060088302620007727fffffffffffffffffffffffffffffffffffffffffffffffffffffffffffffffff8262000733565b6200077e868362000733565b95508019841693508086168417925050509392505050565b6000819050919050565b6000819050919050565b6000620007cb620007c5620007bf8462000796565b620007a0565b62000796565b9050919050565b6000819050919050565b620007e783620007aa565b620007ff620007f682620007d2565b84845462000740565b825550505050565b600090565b6200081662000807565b62000823818484620007dc565b505050565b5b818110156200084b576200083f6000826200080c565b60018101905062000829565b5050565b601f8211156200089a5762000864816200070e565b6200086f8462000723565b810160208510156200087f578190505b620008976200088e8562000723565b83018262000828565b50505b505050565b600082821c905092915050565b6000620008bf600019846008026200089f565b1980831691505092915050565b6000620008da8383620008ac565b9150826002028217905092915050565b620008f58262000505565b67ffffffffffffffff8111156200091157620009106200067b565b5b6200091d8254620006d9565b6200092a8282856200084f565b600060209050601f8311600181146200096257600084156200094d578287015190505b620009598582620008cc565b865550620009c9565b601f19841662000972866200070e565b60005b828110156200099c5784890151825560018201915060208501945060208101905062000975565b86831015620009bc5784890151620009b8601f891682620008ac565b8355505b6001600288020188555050505b505050505050565b600073ffffffffffffffffffffffffffffffffffffffff82169050919050565b6000620009fe82620009d1565b9050919050565b62000a1081620009f1565b82525050565b62000a218162000796565b82525050565b600060808201905062000a3e600083018762000a05565b62000a4d602083018662000a16565b62000a5c604083018562000a16565b62000a6b606083018462000a16565b95945050505050565b611b068062000a846000396000f3fe6080604052600436106100705760003560e01c8063610957e61161004e578063610957e614610120578063705c0f4f1461015d5780638e1686f414610179578063b63c8db4146101b657610070565b8063226b876c146100755780634d8306dd146100b6578063576c73ef146100f5575b600080fd5b34801561008157600080fd5b5061009c60048036038101906100979190610bda565b6101df565b6040516100ad959493929190610ce7565b60405180910390f35b3480156100c257600080fd5b506100dd60048036038101906100d89190610e76565b6102cd565b6040516100ec93929190610ebf565b60405180910390f35b34801561010157600080fd5b5061010a6103a6565b6040516101179190610ef6565b60405180910390f35b34801561012c57600080fd5b5061014760048036038101906101429190610e76565b61046f565b6040516101549190610ef6565b60405180910390f35b61017760048036038101906101729190610f11565b61049d565b005b34801561018557600080fd5b506101a0600480360381019061019b9190610f99565b61082a565b6040516101ad9190610ef6565b60405180910390f35b3480156101c257600080fd5b506101dd60048036038101906101d89190611055565b610865565b005b600081815481106101ef57600080fd5b90600052602060002090600502016000915090508060000160009054906101000a900473ffffffffffffffffffffffffffffffffffffffff16908060010180546102389061110c565b80601f01602080910402602001604051908101604052809291908181526020018280546102649061110c565b80156102b15780601f10610286576101008083540402835291602001916102b1565b820191906000526020600020905b81548152906001019060200180831161029457829003601f168201915b5050505050908060020154908060030154908060040154905085565b60008060008360006001826040516102e59190611179565b90815260200160405180910390205411610334576040517f08c379a000000000000000000000000000000000000000000000000000000000815260040161032b906111dc565b60405180910390fd5b6000600180876040516103479190611179565b908152602001604051809103902054610360919061122b565b905060008082815481106103775761037661125f565b5b906000526020600020906005020190508060020154816003015482600401549550955095505050509193909250565b60008060005b6000805490508110156104675760008082815481106103ce576103cd61125f565b5b906000526020600020906005020190508060020154600260003373ffffffffffffffffffffffffffffffffffffffff1673ffffffffffffffffffffffffffffffffffffffff168152602001908152602001600020826001016040516104339190611326565b90815260200160405180910390205461044c919061133d565b83610457919061137f565b92505080806001019150506103ac565b508091505090565b6001818051602081018201805184825260208301602085012081835280955050505050506000915090505481565b8160006001826040516104b09190611179565b908152602001604051809103902054116104ff576040517f08c379a00000000000000000000000000000000000000000000000000000000081526004016104f6906111dc565b60405180910390fd5b60008211610542576040517f08c379a0000000000000000000000000000000000000000000000000000000008152600401610539906113ff565b60405180910390fd5b6000600180856040516105559190611179565b90815260200160405180910390205461056e919061122b565b905060008082815481106105855761058461125f565b5b9060005260206000209060050201905080600401548411156105dc576040517f08c379a00000000000000000000000000000000000000000000000000000000081526004016105d390611491565b60405180910390fd5b8381600201546105ec919061133d565b341461062d576040517f08c379a0000000000000000000000000000000000000000000000000000000008152600401610624906114fd565b60405180910390fd5b8381600301541015610674576040517f08c379a000000000000000000000000000000000000000000000000000000000815260040161066b90611569565b60405180910390fd5b83816003016000828254610688919061122b565b9250508190555083600260003373ffffffffffffffffffffffffffffffffffffffff1673ffffffffffffffffffffffffffffffffffffffff168152602001908152602001600020866040516106dd9190611179565b908152602001604051809103902060008282546106fa919061137f565b9250508190555060008160000160009054906101000a900473ffffffffffffffffffffffffffffffffffffffff1673ffffffffffffffffffffffffffffffffffffffff163460405161074b906115ba565b60006040518083038185875af1925050503d8060008114610788576040519150601f19603f3d011682016040523d82523d6000602084013e61078d565b606091505b50509050806107d1576040517f08c379a00000000000000000000000000000000000000000000000000000000081526004016107c89061161b565b60405180910390fd5b856040516107df9190611179565b60405180910390207fae9682dc9cc35ac144f04d713b60a650a1de3a1698f35904d7909447d794799b33873460405161081a9392919061163b565b60405180910390a2505050505050565b600260205281600052604060002081805160208101820180518482526020830160208501208183528095505050505050600091509150505481565b6108b585858080601f016020809104026020016040519081016040528093929190818152602001838380828437600081840152601f19601f820116905080830192505050505050508484846108bc565b5050505050565b600083116108ff576040517f08c379a00000000000000000000000000000000000000000000000000000000081526004016108f6906116be565b60405180910390fd5b60008211610942576040517f08c379a0000000000000000000000000000000000000000000000000000000008152600401610939906113ff565b60405180910390fd5b60008111610985576040517f08c379a000000000000000000000000000000000000000000000000000000000815260040161097c9061172a565b60405180910390fd5b60006001856040516109979190611179565b908152602001604051809103902054146109e6576040517f08c379a00000000000000000000000000000000000000000000000000000000081526004016109dd90611796565b60405180910390fd5b6000845111610a2a576040517f08c379a0000000000000000000000000000000000000000000000000000000008152600401610a2190611802565b60405180910390fd5b60006040518060a001604052803373ffffffffffffffffffffffffffffffffffffffff16815260200186815260200185815260200184815260200183815250908060018154018082558091505060019003906000526020600020906005020160009091909190915060008201518160000160006101000a81548173ffffffffffffffffffffffffffffffffffffffff021916908373ffffffffffffffffffffffffffffffffffffffff1602179055506020820151816001019081610aee91906119b9565b506040820151816002015560608201518160030155608082015181600401555050600080549050600185604051610b259190611179565b90815260200160405180910390208190555083604051610b459190611179565b60405180910390207fb75a65bce79356189bfa7962f2ad7097851f15ff966c148c02761f8f5c575bd933858585604051610b829493929190611a8b565b60405180910390a250505050565b6000604051905090565b600080fd5b600080fd5b6000819050919050565b610bb781610ba4565b8114610bc257600080fd5b50565b600081359050610bd481610bae565b92915050565b600060208284031215610bf057610bef610b9a565b5b6000610bfe84828501610bc5565b91505092915050565b600073ffffffffffffffffffffffffffffffffffffffff82169050919050565b6000610c3282610c07565b9050919050565b610c4281610c27565b82525050565b600081519050919050565b600082825260208201905092915050565b60005b83811015610c82578082015181840152602081019050610c67565b60008484015250505050565b6000601f19601f8301169050919050565b6000610caa82610c48565b610cb48185610c53565b9350610cc4818560208601610c64565b610ccd81610c8e565b840191505092915050565b610ce181610ba4565b82525050565b600060a082019050610cfc6000830188610c39565b8181036020830152610d0e8187610c9f565b9050610d1d6040830186610cd8565b610d2a6060830185610cd8565b610d376080830184610cd8565b9695505050505050565b600080fd5b600080fd5b7f4e487b7100000000000000000000000000000000000000000000000000000000600052604160045260246000fd5b610d8382610c8e565b810181811067ffffffffffffffff82111715610da257610da1610d4b565b5b80604052505050565b6000610db5610b90565b9050610dc18282610d7a565b919050565b600067ffffffffffffffff821115610de157610de0610d4b565b5b610dea82610c8e565b9050602081019050919050565b82818337600083830152505050565b6000610e19610e1484610dc6565b610dab565b905082815260208101848484011115610e3557610e34610d46565b5b610e40848285610df7565b509392505050565b600082601f830112610e5d57610e5c610d41565b5b8135610e6d848260208601610e06565b91505092915050565b600060208284031215610e8c57610e8b610b9a565b5b600082013567ffffffffffffffff811115610eaa57610ea9610b9f565b5b610eb684828501610e48565b91505092915050565b6000606082019050610ed46000830186610cd8565b610ee16020830185610cd8565b610eee6040830184610cd8565b949350505050565b6000602082019050610f0b6000830184610cd8565b92915050565b60008060408385031215610f2857610f27610b9a565b5b600083013567ffffffffffffffff811115610f4657610f45610b9f565b5b610f5285828601610e48565b9250506020610f6385828601610bc5565b9150509250929050565b610f7681610c27565b8114610f8157600080fd5b50565b600081359050610f9381610f6d565b92915050565b60008060408385031215610fb057610faf610b9a565b5b6000610fbe85828601610f84565b925050602083013567ffffffffffffffff811115610fdf57610fde610b9f565b5b610feb85828601610e48565b9150509250929050565b600080fd5b600080fd5b60008083601f84011261101557611014610d41565b5b8235905067ffffffffffffffff81111561103257611031610ff5565b5b60208301915083600182028301111561104e5761104d610ffa565b5b9250929050565b60008060008060006080868803121561107157611070610b9a565b5b600086013567ffffffffffffffff81111561108f5761108e610b9f565b5b61109b88828901610fff565b955095505060206110ae88828901610bc5565b93505060406110bf88828901610bc5565b92505060606110d088828901610bc5565b9150509295509295909350565b7f4e487b7100000000000000000000000000000000000000000000000000000000600052602260045260246000fd5b6000600282049050600182168061112457607f821691505b602082108103611137576111366110dd565b5b50919050565b600081905092915050565b600061115382610c48565b61115d818561113d565b935061116d818560208601610c64565b80840191505092915050565b60006111858284611148565b915081905092915050565b7f53746f636b20646f6573206e6f74206578697374000000000000000000000000600082015250565b60006111c6601483610c53565b91506111d182611190565b602082019050919050565b600060208201905081810360008301526111f5816111b9565b9050919050565b7f4e487b7100000000000000000000000000000000000000000000000000000000600052601160045260246000fd5b600061123682610ba4565b915061124183610ba4565b9250828203905081811115611259576112586111fc565b5b92915050565b7f4e487b7100000000000000000000000000000000000000000000000000000000600052603260045260246000fd5b60008190508160005260206000209050919050565b600081546112b08161110c565b6112ba818661113d565b945060018216600081146112d557600181146112ea5761131d565b60ff198316865281151582028601935061131d565b6112f38561128e565b60005b83811015611315578154818901526001820191506020810190506112f6565b838801955050505b50505092915050565b600061133282846112a3565b915081905092915050565b600061134882610ba4565b915061135383610ba4565b925082820261136181610ba4565b91508282048414831517611378576113776111fc565b5b5092915050565b600061138a82610ba4565b915061139583610ba4565b92508282019050808211156113ad576113ac6111fc565b5b92915050565b7f496e76616c6964207175616e7469747900000000000000000000000000000000600082015250565b60006113e9601083610c53565b91506113f4826113b3565b602082019050919050565b60006020820190508181036000830152611418816113dc565b9050919050565b7f5075726368617365207175616e746974792065786365656473206d6178696d7560008201527f6d206c696d697400000000000000000000000000000000000000000000000000602082015250565b600061147b602783610c53565b91506114868261141f565b604082019050919050565b600060208201905081810360008301526114aa8161146e565b9050919050565b7f496e636f7272656374207061796d656e7420616d6f756e740000000000000000600082015250565b60006114e7601883610c53565b91506114f2826114b1565b602082019050919050565b60006020820190508181036000830152611516816114da565b9050919050565b7f496e73756666696369656e742073746f636b207175616e746974790000000000600082015250565b6000611553601b83610c53565b915061155e8261151d565b602082019050919050565b6000602082019050818103600083015261158281611546565b9050919050565b600081905092915050565b50565b60006115a4600083611589565b91506115af82611594565b600082019050919050565b60006115c582611597565b9150819050919050565b7f5472616e73666572206661696c65640000000000000000000000000000000000600082015250565b6000611605600f83610c53565b9150611610826115cf565b602082019050919050565b60006020820190508181036000830152611634816115f8565b9050919050565b60006060820190506116506000830186610c39565b61165d6020830185610cd8565b61166a6040830184610cd8565b949350505050565b7f496e76616c696420707269636500000000000000000000000000000000000000600082015250565b60006116a8600d83610c53565b91506116b382611672565b602082019050919050565b600060208201905081810360008301526116d78161169b565b9050919050565b7f496e76616c6964206d6178207075726368617365207175616e74697479000000600082015250565b6000611714601d83610c53565b915061171f826116de565b602082019050919050565b6000602082019050818103600083015261174381611707565b9050919050565b7f53746f636b20616c726561647920657869737473000000000000000000000000600082015250565b6000611780601483610c53565b915061178b8261174a565b602082019050919050565b600060208201905081810360008301526117af81611773565b9050919050565b7f496e76616c69642073746f636b20494400000000000000000000000000000000600082015250565b60006117ec601083610c53565b91506117f7826117b6565b602082019050919050565b6000602082019050818103600083015261181b816117df565b9050919050565b60006020601f8301049050919050565b600082821b905092915050565b60006008830261186f7fffffffffffffffffffffffffffffffffffffffffffffffffffffffffffffffff82611832565b6118798683611832565b95508019841693508086168417925050509392505050565b6000819050919050565b60006118b66118b16118ac84610ba4565b611891565b610ba4565b9050919050565b6000819050919050565b6118d08361189b565b6118e46118dc826118bd565b84845461183f565b825550505050565b600090565b6118f96118ec565b6119048184846118c7565b505050565b5b818110156119285761191d6000826118f1565b60018101905061190a565b5050565b601f82111561196d5761193e8161128e565b61194784611822565b81016020851015611956578190505b61196a61196285611822565b830182611909565b50505b505050565b600082821c905092915050565b600061199060001984600802611972565b1980831691505092915050565b60006119a9838361197f565b9150826002028217905092915050565b6119c282610c48565b67ffffffffffffffff8111156119db576119da610d4b565b5b6119e5825461110c565b6119f082828561192c565b600060209050601f831160018114611a235760008415611a11578287015190505b611a1b858261199d565b865550611a83565b601f198416611a318661128e565b60005b82811015611a5957848901518255600182019150602085019450602081019050611a34565b86831015611a765784890151611a72601f89168261197f565b8355505b6001600288020188555050505b505050505050565b6000608082019050611aa06000830187610c39565b611aad6020830186610cd8565b611aba6040830185610cd8565b611ac76060830184610cd8565b9594505050505056fea264697066735822122047fe3b2880ef6cbf8f824ba6f60ec89545c7de859a9215e4ea43b934b9d780a464736f6c63430008180033",
  "linkReferences": {},
  "deployedLinkReferences": {}
}